:100000000C94C7000C94EF000C94EF000C94EF00DC
:100010000C94EF000C94EF000C94EF000C94EF00A4
:100020000C94EF000C94EF000C9478060C94E70607
:100030000C94EF000C94EF000C94EF000C94EF0084
:100040000C94EF000C94EF000C94EF000C94EF0074
:100050000C94EF000C94EF000C94EF000C94190931
:100060000C94EF000C94EF000C94EF000C94EF0054
:100070000C94EF000C94EF000C94EF000C94EF0044
:100080000C94EF000C94EF000C94EF000C94EF0034
:100090000C9463090C94EF000C94EF000C94EF00A7
:1000A0000C94EF000C94EF000C94EF0000000000A3
:1000B000250028002B002E00310004040404040352
:1000C00004050202020204030202020206060606F8
:1000D000060604040202020404040802011040801F
:1000E000401020408040800802040180402010021F
:1000F00001108010204040200000000200090F0085
:1001000000030401000C00000000000000000000DB
:1001100000000000000000080B00020202000009BD
:100120000400000102020000052400100105240162
:1001300001010424020605240600010705810310BD
:10014000004009040100020A000000070502024005
:1001500000000705830240000004030904120100A7
:1001600002EF0201404123368000010102030141F8
:10017000726475696E6F204C4C43004172647569FE
:100180006E6F204C656F6E6172646F00820A11247D
:100190001FBECFEFDAE0DEBFCDBF11E0A0E0B1E0DF
:1001A000E0E4F8E102C005900D92AC36B107D9F752
:1001B00022E0ACE6B1E001C01D92AD3AB207E1F732
:1001C00010E0C7ECD0E004C02197FE010E94180C9B
:1001D000C63CD107C9F70E94B20A0C941E0C0C94BD
:1001E0000000FC0180914402882311F13FB7F8948C
:1001F00082E08093E9002091F200822F90E01816AF
:10020000190614F481E090E0882339F0289844E638
:10021000409343024091F1004083222339F0209122
:10022000F200211103C02BE62093E8003FBF0895A0
:100230008FEF9FEF08952FB7F89483E08093E90044
:100240009091E800892F807295FF04C09091F20090
:1002500080E4891B2FBF089580913B0281110DC05E
:1002600082E08093370284E08093380210923A0251
:100270001092390281E080933B0287E392E0089577
:10028000CF93DF931F92CDB7DEB76983DC01ED9189
:10029000FC910280F381E02D41E050E0BE016F5FF0
:1002A0007F4F09950F90DF91CF91089583E0809360
:1002B000E9008091F200882319F08AE38093E80036
:1002C00008950E941B0190E00895CF93DF931F9241
:1002D000CDB7DEB7FC018485958597FD08C02FEF6B
:1002E0003FEF358724870F90DF91CF910895CE019E
:1002F00001960E94F100019719F4898190E0F3CFF3
:100300008FEF9FEFF0CF0F931F93CF93DF931F9249
:10031000CDB7DEB78C01FC018485958597FF0BC0B6
:10032000CE0101960E94F100019771F4898190E05D
:10033000F80195878487F801848595850F90DF9172
:10034000CF911F910F9108958FEF9FEFF1CFFC0197
:100350008485958597FD0BC09FB7F89482E08093C4
:10036000E9008091F2009FBF90E0019608959FB749
:10037000F89482E08093E9008091F2009FBF90E0C2
:100380000895409131025091320220912F02309114
:10039000300242175307B4F49091E8009570E1F3EE
:1003A0009091E80092FD19C08093F1008091310294
:1003B0009091320201968F739927892B19F48EEF51
:1003C0008093E800809131029091320201969093DF
:1003D00032028093310281E0089580E00895EF9227
:1003E000FF920F931F93CF93DF93F82E192FE62ED2
:1003F000042F81E0860F880F0E94C10183E00E94D4
:10040000C101CF2DD12FEC0EFD2EF11CCE15DF0535
:10041000B9F007FF13C0FE0184910E94C101182F9B
:1004200080E00E94C101812321968111EFCFDF91ED
:10043000CF911F910F91FF90EF9008958881EDCF9C
:1004400081E0F5CFDF92EF92FF920F931F93CF934E
:10045000DF93D82E8A01EB017B01E40EF51ECE1549
:10046000DF0559F0D7FE12C0FE0184910E94C10140
:1004700021968111F4CF0FEF1FEFC801DF91CF91CB
:100480001F910F91FF90EF90DF9008958881EECF3C
:100490000F931F93CF93DF931F92CDB7DEB782E008
:1004A000898342E450E067E171E080E80E94220223
:1004B0000E942C01DC0112960D911C910115110571
:1004C00089F0D801ED91FC910280F381E02DBE010D
:1004D0006F5F7F4FC801099597FD04C0F801008543
:1004E0001185ECCF89810F90DF91CF911F910F91F2
:1004F0000895615030F02091F100FC0120830196B5
:10050000F8CF289884E6809343020895282F30E09E
:10051000F901E850FF4F9491F901E752FF4F8491A0
:1005200026543F4FF9012491222309F430C0992326
:10053000E9F091509F30D0F4E92FF0E0EE55FD4FF7
:100540000C94180CD002D402B102C802CC02B6023C
:10055000B602B602D702DD02E102E502EB02B60204
:10056000EF02909180009F7790938000E22FF0E05F
:10057000EE0FFF1FE455FF4FA591B4919FB7F8947C
:10058000EC91611132C080958E238C939FBF0895AA
:10059000909180009F7DE8CF90918000977FE4CF7D
:1005A00094B59F7794BDE2CF94B59F7DFBCF90919A
:1005B00090009F7790939000D9CF909190009F7D6D
:1005C000F9CF90919000977FF5CF9091C0009F77E1
:1005D0009093C000CBCF9091C0009F7DF9CF9091B8
:1005E000C200977F9093C200C1CF8E2BCECF3FB772
:1005F000F89480912B0290912C02A0912D02B09141
:100600002E0226B5A89B05C02F3F19F00196A11D0B
:10061000B11D3FBFBA2FA92F982F8827BC01CD014C
:10062000620F711D811D911D42E0660F771F881FAB
:10063000991F4A95D1F708958F929F92AF92BF92DA
:10064000CF92DF92EF92FF924B015C010E94F70282
:100650006B017C010E94F7026C197D098E099F09CC
:10066000683E734081059105A8F321E0821A910844
:10067000A108B10888EEC80E83E0D81EE11CF11C69
:1006800081149104A104B10429F7FF90EF90DF9049
:10069000CF90BF90AF909F908F9008958F929F9230
:1006A000AF92BF92CF92DF92EF92FF920F931F9380
:1006B000CF93DF936C017B018A0180910B0188232A
:1006C00009F45CC080914402882309F457C08091EA
:1006D000360280FF05C08091E00082608093E000D8
:1006E000E801B12C8AEFA82E93E0892E2AE3922EFE
:1006F000209711F4BB20D9F10E941B0181110AC07F
:10070000AA94AA20D9F161E070E080E090E00E9414
:100710001C03EECF8C171D0611F00CF08C2F9FB729
:10072000F8948092E9002091E80025FD02C09FBF67
:10073000DFCF282F30E0C21BD30BF701815020F010
:1007400041914093F100FACFE20EF31EBB2021F05D
:100750009092E800B12CEBCF8091E80085FDE7CFC7
:100760009092E800BB24B394209709F3F3CF5D98EF
:1007700084E680933502101611063CF081E090E08B
:10078000F6019383828310E000E0C801DF91CF91EE
:100790001F910F91FF90EF90DF90CF90BF90AF909F
:1007A0009F908F90089508950895AF92BF92CF9231
:1007B000DF92EF92FF920F931F93CF93DF936C0121
:1007C0007B018B01040F151FEB015E01AE18BF0802
:1007D000C017D10759F06991D601ED91FC910190B4
:1007E000F081E02DC6010995892B79F7C501DF91CC
:1007F000CF911F910F91FF90EF90DF90CF90BF901E
:10080000AF9008952091D401260F3327331F213252
:100810003105ECF42091F801FC0190E080E02430F7
:1008200069F082E00895A091D4012191AC014C546B
:100830005E4FA40FB52FB11D2C930196861798F328
:100840008091D401680F6093D40180E0089581E025
:1008500008951092F80181E08093FA011092F90155
:1008600061E082E00E94860261E083E00E948602ED
:10087000E9EBF0E080818E7F808380818D7F8083B3
:1008800088E48093B80085E48093BC000895CF93FA
:10089000DF9391E09093B3018823B9F0C091B80041
:1008A000D091BA008091BC008A7B8093BC0060E04C
:1008B00082E00E94860260E083E00E9486020E943D
:1008C0002904D093BA00C093B800DF91CF91089566
:1008D0000895E091250280912402E81730F4F0E0B9
:1008E000E257FE4F808190E008958FEF9FEF0895CB
:1008F00090912502809124022FEF3FEF981748F442
:10090000E92FF0E0E257FE4F208130E09F5F9093A7
:100910002502C90108958091240290912502891B26
:10092000990B0895CF92DF92EF92FF920F931F934E
:10093000CF93DF937C01CB018A0120918D0122238B
:1009400089F0EB016B01C40ED51ECC15DD0569F0F5
:100950006991D701ED91FC910190F081E02DC701E3
:100960000995F3CF642F0E940204C801DF91CF9153
:100970001F910F91FF90EF90DF90CF900895CF934C
:10098000DF931F92CDB7DEB7698320918D012223BB
:10099000F9F020912202203258F021E030E0FC01F1
:1009A0003383228390E080E00F90DF91CF91089510
:1009B00080912302E82FF0E0E359FE4F9981908364
:1009C0008F5F809323028093220281E090E0ECCF3E
:1009D00061E0CE0101960E940204F7CFCF92DF9230
:1009E000EF92FF920F931F93CF93DF93FC01C4818B
:1009F00021E020938D01C0936C011092230210928C
:100A000022028385682B85E992E00E94BF04D09181
:100A10002202D13208F092C00E94F7026B017C01E1
:100A20008091F801811165C082E08093F80181E036
:100A30008093FA018FEF8093F70110921C02D093FC
:100A40001B02ADE6B1E0EBEFF1E080E0D81385C02A
:100A500010921D0280911D02CC0FC82BC0931D0265
:100A60008091F901813009F07CC01092F9010E9457
:100A7000F7026B017C0180911D028093BB00809185
:100A8000AF019091B001A091B101B091B201892B59
:100A90008A2B8B2B99F00E94F7020091AF011091E5
:100AA000B0012091B1013091B2016C197D098E091C
:100AB0009F090617170728073907E0F18091BC0046
:100AC00083FDD9CF85EC8093BC000E94F7026B01B7
:100AD0007C018091F801823009F445C08091F701D2
:100AE0008F3F61F18091F701803241F18091F701F0
:100AF00025C08091AF019091B001A091B101B0915A
:100B0000B201892B8A2B8B2B09F48ACF0E94F70222
:100B10000091AF011091B0012091B1013091B2016B
:100B20006C197D098E099F090617170728073907D1
:100B300008F076CF8091AE010E9447041092230204
:100B40001092220210928D01DF91CF911F910F918F
:100B5000FF90EF90DF90CF9008959D9191938F5FDC
:100B600075CF85EEB0CF8091AF019091B001A0918B
:100B7000B101B091B201892B8A2B8B2B09F4A9CF3B
:100B80000E94F7020091AF011091B0012091B101D4
:100B90003091B2016C197D098E099F09061717075C
:100BA0002807390708F095CFC5CF089590E080E079
:100BB000089585ED8093BC008091AF019091B001C4
:100BC000A091B101B091B2010796A11DB11D23E022
:100BD000B695A795979587952A95D1F72091BC0052
:100BE00024FD03C01092F80108954091AF01509187
:100BF000B0016091B1017091B201452B462B472B9A
:100C000069F30097A105B10541F02AE22A95F1F7B1
:100C100000C00197A109B109E1CF8091AE010C9408
:100C200047040F931F93CF938C01C62F0E94EE04AD
:100C30006C2F6460C8010E94EE046C2F6B7FC801AA
:100C40000E94EE0483EC90E00197F1F7CF911F91A1
:100C50000F9108950F931F93CF93DF938C01D62F9D
:100C6000C42F607F642B0E94110680E1D89FB001E1
:100C700011246C2BC801DF91CF911F910F910C941F
:100C80001106CF93DF93CDB7DEB728970FB6F89450
:100C9000DEBF0FBECDBF98E0ECE0F1E0DE011196C3
:100CA00001900D929A95E1F79091A902981708F496
:100CB0008FEF90E0880F991F21E030E02C0F3D1F4F
:100CC000820F931FFC016081606840E081EA92E03E
:100CD00028960FB6F894DEBF0FBECDBFDF91CF913F
:100CE0000C942A0641E00E942A0681E090E00895D3
:100CF0001F920F920FB60F9211248F939F938091A2
:100D0000E1009091E100937F9093E10083FF0FC099
:100D10001092E90091E09093EB001092EC0092E3C6
:100D20009093ED001092440298E09093F00082FFBF
:100D300022C093E09093E9009091F200992319F07A
:100D40009AE39093E80090913502992341F09091B5
:100D50003502915090933502911101C05D9A9091A6
:100D60004302992341F090914302915090934302A2
:100D7000911101C0289A84FF18C08091E2008E7EF4
:100D800081608093E2008091E1008F7E8093E1009A
:100D9000809136028E7E8061809336029F918F9182
:100DA0000F900FBE0F901F90189580FFF7CF809186
:100DB000E2008E7E80618093E2008091E1008E7E71
:100DC0008093E100809136028E7E8160E5CF1F9294
:100DD0000F920FB60F921124CF92DF92EF92FF92F3
:100DE0000F931F932F933F934F935F936F937F9333
:100DF0008F939F93AF93BF93EF93FF93CF93DF9323
:100E0000CDB7DEB76C97DEBFCDBF1092E900809101
:100E1000E80083FF25C068E0CE0145960E94790274
:100E200082EF8093E8008D8987FF39C09091E800B8
:100E300090FFFCCF982F907609F034C19E894F899E
:100E4000588D2F89F88C911131C0803861F58091CF
:100E500034028093F1001092F1008EEF8093E8004D
:100E60006C960FB6F894DEBF0FBECDBFDF91CF9169
:100E7000FF91EF91BF91AF919F918F917F916F9172
:100E80005F914F913F912F911F910F91FF90EF90A4
:100E9000DF90CF900F900FBE0F901F9018959EEF90
:100EA0009093E800C7CF1092F100D5CF913059F45C
:100EB0008111D3CF4130510581F6809134028D7F6D
:100EC00080933402CACF933049F48111C6CF4130A8
:100ED000510519F6809134028260F2CF953041F4C9
:100EE0008091E80080FFFCCF20682093E300B5CF1D
:100EF000963009F0A9C00B8D1C8D22E01092E900FC
:100F00001092320210923102F2122EC01092300270
:100F100010922F020E9448021F8299E09983FA8260
:100F200091E09E8390EA98879AEF99872091310209
:100F300030913202275F3F4F3C832B838D83109289
:100F4000E9001092320210923102109330020093A5
:100F50002F0249E050E0BE016F5F7F4F80E00E94AA
:100F600022020E94480279CF1093300200932F0290
:100F70000E942C01DC0112960D911C9101151105A6
:100F800009F451C1D801ED91FC910480F581E02D67
:100F9000BE016B5E7F4FC8010995009709F03EC105
:100FA000F80100851185EACFF3E0FF120EC08F89AA
:100FB000882309F440C0823061F440E860E18BE7A7
:100FC00091E00E94EF01811148CF81E28093EB0014
:100FD00047CF813029F440E86BE08FE691E0F1CF14
:100FE000833099F70E942C01DC011296ED90FC9061
:100FF0008E010F5F1F4F6801E114F10479F0D701F2
:10100000ED91FC910680F781E02DB801C7010995AB
:10101000080F111DF701E084F184EECFD8011C9276
:10102000F60101900020E9F73197BF016C197D09A5
:1010300040E0C601C6CF69E571E0FB01449150E094
:1010400080E80E94220209CF973009F4BECF983081
:1010500021F481E08093F10000CF993009F0FDCEBA
:10106000837009F0B2CFE5E1F1E081E031E096E391
:101070002191222371F08093E9003093EB00DF018E
:1010800011972C912093EC009093ED008F5F8730A7
:1010900079F78EE78093EA001092EA008F898093B7
:1010A0004402DBCE8B8D9C8D1092E90010923202AF
:1010B000109231029093300280932F02898D81111A
:1010C00092C08E899D89913A49F4813209F07DCF91
:1010D00047E050E064E071E080E0B3CF913209F086
:1010E00074CF833269F48F89988DB0E0A0E080934B
:1010F000000190930101A0930201B0930301ADCED2
:10110000803269F48091E80082FFFCCF67E084E0E0
:1011100091E00E9479028BEF8093E8009ECE8232AC
:1011200009F09BCE8F8980930B01EEEFFFE785914D
:1011300094918B3F9C4D51F1E0E0F8E080910401E7
:1011400090910501A0910601B0910701803B944068
:10115000A105B105F1F480910B0180FD1AC0EE3FAD
:101160008AE0F80789F587E797E791838083809184
:1011700060008093330288E19BE00FB6F894A89555
:10118000809360000FBE9093600067CEEEEFFAE0B0
:10119000D5CF808191818737974709F05ECEA8959A
:1011A0008091600088618093600080913302809319
:1011B0006000EE3F2AE0F20789F08091FE0A9091EC
:1011C000FF0A9183808349CE808191818737980778
:1011D00051F29093FF0A8093FE0AC5CF1092FF0A46
:1011E0001092FE0A3ACE0E942C01DC0112960D915B
:1011F0001C910115110509F4E8CED801ED91FC917F
:101200000190F081E02DBE016B5E7F4FC801099512
:10121000811123CEF80100851185EBCF1816190630
:101220000CF41BCED2CEF1E0FF12BECE6DE571E024
:1012300004CF1F920F920FB60F9211242F933F935A
:101240008F939F93AF93BF93809127029091280231
:10125000A0912902B0912A023091260223E0230FA7
:101260002D3758F50196A11DB11D209326028093BC
:10127000270290932802A0932902B0932A0280911A
:101280002B0290912C02A0912D02B0912E0201967A
:10129000A11DB11D80932B0290932C02A0932D02CF
:1012A000B0932E02BF91AF919F918F913F912F915B
:1012B0000F900FBE0F901F90189526E8230F0296EF
:1012C000A11DB11DD2CF1F920F920FB60F92112404
:1012D0002F933F934F935F936F937F938F939F933E
:1012E000AF93BF93EF93FF938091B900887F8036CF
:1012F00009F44AC0F0F5883209F4A7C018F5803126
:1013000009F49BC0B8F4882309F4F9C0883009F4C3
:1013100094C0FF91EF91BF91AF919F918F917F9179
:101320006F915F914F913F912F910F900FBE0F9052
:101330001F901895883109F488C0803251F7809346
:10134000F70114C0803409F49DC040F48033B9F330
:101350008833F9F68093F70185ECB0C0803509F445
:1013600085C0883509F496C0883499F60E94D9055D
:10137000D0CF883909F48CC038F5883729F050F47B
:10138000883611F0803729F683E08093F8011092B7
:10139000F60157C0883809F47BC0803919F08038CD
:1013A00009F0B7CF8091F601803208F071C0E0916A
:1013B000F60181E08E0F8093F6018091BB00F0E092
:1013C000EA52FE4F80833DC0803B39F0E0F4803A22
:1013D00009F479C0883A09F09CCF84E08093F80141
:1013E0001092D5011092D401E0912002F0912102D7
:1013F00009958091D40181110FC081E08093D401BF
:101400001092B40109C0803C09F4A6CF883C09F4CD
:10141000A3CF883B09F07DCFE091D50181E08E0F0D
:101420008093D501F0E0EC54FE4F80818093BB00A7
:101430009091D5018091D40129C080911D028093A3
:10144000BB0085EC8093BC0064CF90911C0280911E
:101450001B02981758F5E0911C0281E08E0F8093D3
:101460001C02F0E0E550FE4F8081E9CFE0911C02C4
:1014700081E08E0F80931C028091BB00F0E0E5506C
:10148000FE4F808390911C0280911B029817C8F236
:1014900085E8D8CFE0911C0281E08E0F80931C027A
:1014A0008091BB00F0E0E550FE4F80838091FA010F
:1014B00081115CCF81E08093F90184EA8093BC00C4
:1014C0001092F80126CF85EC8093BC001092F801B1
:1014D0008091F601803230F4E091F601F0E0EA52BA
:1014E000FE4F10826091F60170E0E0911E02F091D3
:1014F0001F0286ED91E009951092F6010ACF109235
:10150000F70134CFE5E4F2E01382128288EE93E033
:10151000A0E0B0E084839583A683B7832FE131E018
:10152000318320832FEF3FEF35872487E5E9F2E011
:101530001382128284839583A683B78381E391E02B
:1015400091838083E1EAF2E01382128283E491E0E6
:101550009183808387E2848380E1818782E0828730
:1015600013860895789484B5826084BD84B58160C3
:1015700084BD85B5826085BD85B5816085BD80915E
:101580006E00816080936E001092810080918100D6
:1015900082608093810080918100816080938100CE
:1015A00080918000816080938000809191008260B2
:1015B000809391008091910081608093910080914F
:1015C00090008160809390008091C100846080933E
:1015D000C1008091C10082608093C1008091C100F0
:1015E00081608093C1008091C30081608093C300BB
:1015F0008091C00082608093C0008091C2008160B1
:101600008093C20080917A00846080937A008091F8
:101610007A00826080937A0080917A008160809362
:101620007A0080917A00806880937A001092440258
:1016300010923402109236028091D700816080931C
:10164000D70080EA8093D80089B5806189BD89B5CB
:10165000826089BD09B400FEFDCF61E070E080E0EA
:1016600090E00E941C038091D8008F7C8061809361
:10167000D8008091E000807F8093E0008091E100BD
:101680008E7E8093E1008DE08093E200559A209A4F
:10169000109225021092240210922302109222022C
:1016A0000E94290483ED93E090932102809320020D
:1016B00084ED93E090931F0280931E021092A60285
:1016C0008091AB02823018F098E09093A60280934C
:1016D000A90262E370E080E090E00E941C03609148
:1016E000AC0281EA92E00E94EE0468EE73E080E0D2
:1016F00090E00E941C0360E381EA92E00E941106E0
:10170000CBE4D6E4CE010197F1F760E381EA92E001
:101710000E9411062197F1F760E381EA92E00E94AE
:10172000110683E592E00197F1F760E281EA92E029
:101730000E9411066091A602606240E081EA92E098
:101740000E942A0684E08093A70240E06CE081EAD0
:1017500092E00E942A0640E061E081EA92E00E9465
:101760002A06CBE3DFE1CE010197F1F782E0809317
:10177000A80240E066E081EA92E00E942A0640E08A
:1017800062E081EA92E00E942A06CE010197F1F719
:1017900088E08093AC0260E081EA92E00E94EE046F
:1017A00040E061E081EA92E00E942A062197F1F789
:1017B00080E00E9441064EE050E06BE471E081EA77
:1017C00092E00E94D50381E00E94410640E150E092
:1017D0006AE571E081EA92E00E94D503C0E0D0E0C2
:1017E0006091A702862F84608093A7026C6040E01E
:1017F00081EA92E00E942A0664EF71E080E090E0C6
:101800000E941C036091A7026B7F6093A70268602F
:1018100040E081EA92E00E942A0664EF71E080E0F5
:1018200090E00E941C032097D9F20E940000D8CFBC
:10183000EE0FFF1F0590F491E02D0994F894FFCF6F
:10184000FFFFFFFF00E1000000000000000040007B
:101850001400540000C1808100000000000000401E
:10186000014E0361015601A70165018301000000DB
:1018700000BF049204D60568048B04780469040050
:101880000000007206D503D605D5053D3D3E205625
:101890004944454F53203C3D3D003D3D3E20454C95
:0C18A000454354524F414C4C203C00008A
:00000001FF
